{"abi":[{"type":"constructor","inputs":[{"name":"_name","type":"string","internalType":"string"},{"name":"_symbol","type":"string","internalType":"string"}],"stateMutability":"nonpayable"},{"type":"function","name":"allowance","inputs":[{"name":"owner","type":"address","internalType":"address"},{"name":"spender","type":"address","internalType":"address"}],"outputs":[{"name":"","type":"uint256","internalType":"uint256"}],"stateMutability":"view"},{"type":"function","name":"approve","inputs":[{"name":"spender","type":"address","internalType":"address"},{"name":"amount","type":"uint256","internalType":"uint256"}],"outputs":[{"name":"","type":"bool","internalType":"bool"}],"stateMutability":"nonpayable"},{"type":"function","name":"balanceOf","inputs":[{"name":"account","type":"address","internalType":"address"}],"outputs":[{"name":"","type":"uint256","internalType":"uint256"}],"stateMutability":"view"},{"type":"function","name":"claimToken","inputs":[],"outputs":[{"name":"","type":"bool","internalType":"bool"}],"stateMutability":"nonpayable"},{"type":"function","name":"decimals","inputs":[],"outputs":[{"name":"","type":"uint8","internalType":"uint8"}],"stateMutability":"view"},{"type":"function","name":"hasClaimed","inputs":[{"name":"","type":"address","internalType":"address"}],"outputs":[{"name":"","type":"bool","internalType":"bool"}],"stateMutability":"view"},{"type":"function","name":"hasVoted","inputs":[{"name":"","type":"address","internalType":"address"}],"outputs":[{"name":"","type":"bool","internalType":"bool"}],"stateMutability":"view"},{"type":"function","name":"name","inputs":[],"outputs":[{"name":"","type":"string","internalType":"string"}],"stateMutability":"view"},{"type":"function","name":"symbol","inputs":[],"outputs":[{"name":"","type":"string","internalType":"string"}],"stateMutability":"view"},{"type":"function","name":"totalSupply","inputs":[],"outputs":[{"name":"","type":"uint256","internalType":"uint256"}],"stateMutability":"view"},{"type":"function","name":"transfer","inputs":[{"name":"to","type":"address","internalType":"address"},{"name":"amount","type":"uint256","internalType":"uint256"}],"outputs":[{"name":"","type":"bool","internalType":"bool"}],"stateMutability":"nonpayable"},{"type":"function","name":"transferFrom","inputs":[{"name":"from","type":"address","internalType":"address"},{"name":"to","type":"address","internalType":"address"},{"name":"amount","type":"uint256","internalType":"uint256"}],"outputs":[{"name":"","type":"bool","internalType":"bool"}],"stateMutability":"nonpayable"},{"type":"function","name":"vote","inputs":[{"name":"candidate","type":"address","internalType":"address"}],"outputs":[{"name":"","type":"bool","internalType":"bool"}],"stateMutability":"nonpayable"},{"type":"event","name":"Approval","inputs":[{"name":"owner","type":"address","indexed":true,"internalType":"address"},{"name":"spender","type":"address","indexed":true,"internalType":"address"},{"name":"value","type":"uint256","indexed":false,"internalType":"uint256"}],"anonymous":false},{"type":"event","name":"Transfer","inputs":[{"name":"from","type":"address","indexed":true,"internalType":"address"},{"name":"to","type":"address","indexed":true,"internalType":"address"},{"name":"value","type":"uint256","indexed":false,"internalType":"uint256"}],"anonymous":false}],"bytecode":{"object":"0x608060405234801561000f575f5ffd5b50604051611ebd380380611ebd833981810160405281019061003191906101c5565b815f908161003f919061045c565b50806001908161004f919061045c565b505f60025f6101000a81548160ff021916908360ff1602179055505f600381905550505061052b565b5f604051905090565b5f5ffd5b5f5ffd5b5f5ffd5b5f5ffd5b5f601f19601f8301169050919050565b7f4e487b71000000000000000000000000000000000000000000000000000000005f52604160045260245ffd5b6100d782610091565b810181811067ffffffffffffffff821117156100f6576100f56100a1565b5b80604052505050565b5f610108610078565b905061011482826100ce565b919050565b5f67ffffffffffffffff821115610133576101326100a1565b5b61013c82610091565b9050602081019050919050565b8281835e5f83830152505050565b5f61016961016484610119565b6100ff565b9050828152602081018484840111156101855761018461008d565b5b610190848285610149565b509392505050565b5f82601f8301126101ac576101ab610089565b5b81516101bc848260208601610157565b91505092915050565b5f5f604083850312156101db576101da610081565b5b5f83015167ffffffffffffffff8111156101f8576101f7610085565b5b61020485828601610198565b925050602083015167ffffffffffffffff81111561022557610224610085565b5b61023185828601610198565b9150509250929050565b5f81519050919050565b7f4e487b71000000000000000000000000000000000000000000000000000000005f52602260045260245ffd5b5f600282049050600182168061028957607f821691505b60208210810361029c5761029b610245565b5b50919050565b5f819050815f5260205f209050919050565b5f6020601f8301049050919050565b5f82821b905092915050565b5f600883026102fe7fffffffffffffffffffffffffffffffffffffffffffffffffffffffffffffffff826102c3565b61030886836102c3565b95508019841693508086168417925050509392505050565b5f819050919050565b5f819050919050565b5f61034c61034761034284610320565b610329565b610320565b9050919050565b5f819050919050565b61036583610332565b61037961037182610353565b8484546102cf565b825550505050565b5f5f905090565b610390610381565b61039b81848461035c565b505050565b5f5b828110156103c1576103b65f828401610388565b6001810190506103a2565b505050565b601f8211156104145782821115610413576103e0816102a2565b6103e9836102b4565b6103f2856102b4565b60208610156103ff575f90505b80830161040e828403826103a0565b505050505b5b505050565b5f82821c905092915050565b5f6104345f1984600802610419565b1980831691505092915050565b5f61044c8383610425565b9150826002028217905092915050565b6104658261023b565b67ffffffffffffffff81111561047e5761047d6100a1565b5b6104888254610272565b6104938282856103c6565b5f60209050601f8311600181146104c4575f84156104b2578287015190505b6104bc8582610441565b865550610523565b601f1984166104d2866102a2565b5f5b828110156104f9578489015182556001820191506020850194506020810190506104d4565b868310156105165784890151610512601f891682610425565b8355505b6001600288020188555050505b505050505050565b611985806105385f395ff3fe608060405234801561000f575f5ffd5b50600436106100cd575f3560e01c80634451d89f1161008a57806373b2e80e1161006457806373b2e80e1461023957806395d89b4114610269578063a9059cbb14610287578063dd62ed3e146102b7576100cd565b80634451d89f146101bb5780636dd7d8ea146101d957806370a0823114610209576100cd565b806306fdde03146100d1578063095ea7b3146100ef57806309eef43e1461011f57806318160ddd1461014f57806323b872dd1461016d578063313ce5671461019d575b5f5ffd5b6100d96102e7565b6040516100e691906111bd565b60405180910390f35b6101096004803603810190610104919061126e565b610372565b60405161011691906112c6565b60405180910390f35b610139600480360381019061013491906112df565b61045f565b60405161014691906112c6565b60405180910390f35b61015761047c565b6040516101649190611319565b60405180910390f35b61018760048036038101906101829190611332565b610482565b60405161019491906112c6565b60405180910390f35b6101a561083e565b6040516101b2919061139d565b60405180910390f35b6101c3610850565b6040516101d091906112c6565b60405180910390f35b6101f360048036038101906101ee91906112df565b610942565b60405161020091906112c6565b60405180910390f35b610223600480360381019061021e91906112df565b610c96565b6040516102309190611319565b60405180910390f35b610253600480360381019061024e91906112df565b610cdc565b60405161026091906112c6565b60405180910390f35b610271610cf9565b60405161027e91906111bd565b60405180910390f35b6102a1600480360381019061029c919061126e565b610d85565b6040516102ae91906112c6565b60405180910390f35b6102d160048036038101906102cc91906113b6565b610f89565b6040516102de9190611319565b60405180910390f35b5f80546102f390611421565b80601f016020809104026020016040519081016040528092919081815260200182805461031f90611421565b801561036a5780601f106103415761010080835404028352916020019161036a565b820191905f5260205f20905b81548152906001019060200180831161034d57829003601f168201915b505050505081565b5f8160055f3373ffffffffffffffffffffffffffffffffffffffff1673ffffffffffffffffffffffffffffffffffffffff1681526020019081526020015f205f8573ffffffffffffffffffffffffffffffffffffffff1673ffffffffffffffffffffffffffffffffffffffff1681526020019081526020015f20819055508273ffffffffffffffffffffffffffffffffffffffff163373ffffffffffffffffffffffffffffffffffffffff167f8c5be1e5ebec7d5bd14f71427d1e84f3dd0314c0f7b2291e5b200ac8c7c3b9258460405161044d9190611319565b60405180910390a36001905092915050565b6007602052805f5260405f205f915054906101000a900460ff1681565b60035481565b5f5f73ffffffffffffffffffffffffffffffffffffffff168473ffffffffffffffffffffffffffffffffffffffff16036104f1576040517f08c379a00000000000000000000000000000000000000000000000000000000081526004016104e89061149b565b60405180910390fd5b5f73ffffffffffffffffffffffffffffffffffffffff168373ffffffffffffffffffffffffffffffffffffffff160361055f576040517f08c379a000000000000000000000000000000000000000000000000000000000815260040161055690611503565b60405180910390fd5b8160045f8673ffffffffffffffffffffffffffffffffffffffff1673ffffffffffffffffffffffffffffffffffffffff1681526020019081526020015f205410156105df576040517f08c379a00000000000000000000000000000000000000000000000000000000081526004016105d69061156b565b60405180910390fd5b8160055f8673ffffffffffffffffffffffffffffffffffffffff1673ffffffffffffffffffffffffffffffffffffffff1681526020019081526020015f205f3373ffffffffffffffffffffffffffffffffffffffff1673ffffffffffffffffffffffffffffffffffffffff1681526020019081526020015f2054101561069a576040517f08c379a0000000000000000000000000000000000000000000000000000000008152600401610691906115d3565b60405180910390fd5b8160055f8673ffffffffffffffffffffffffffffffffffffffff1673ffffffffffffffffffffffffffffffffffffffff1681526020019081526020015f205f3373ffffffffffffffffffffffffffffffffffffffff1673ffffffffffffffffffffffffffffffffffffffff1681526020019081526020015f205f828254610721919061161e565b925050819055508160045f8673ffffffffffffffffffffffffffffffffffffffff1673ffffffffffffffffffffffffffffffffffffffff1681526020019081526020015f205f828254610774919061161e565b925050819055508160045f8573ffffffffffffffffffffffffffffffffffffffff1673ffffffffffffffffffffffffffffffffffffffff1681526020019081526020015f205f8282546107c79190611651565b925050819055508273ffffffffffffffffffffffffffffffffffffffff168473ffffffffffffffffffffffffffffffffffffffff167fddf252ad1be2c89b69c2b068fc378daa952ba7f163c4a11628f55a4df523b3ef8460405161082b9190611319565b60405180910390a3600190509392505050565b60025f9054906101000a900460ff1681565b5f60065f3373ffffffffffffffffffffffffffffffffffffffff1673ffffffffffffffffffffffffffffffffffffffff1681526020019081526020015f205f9054906101000a900460ff16156108db576040517f08c379a00000000000000000000000000000000000000000000000000000000081526004016108d2906116ce565b60405180910390fd5b600160065f3373ffffffffffffffffffffffffffffffffffffffff1673ffffffffffffffffffffffffffffffffffffffff1681526020019081526020015f205f6101000a81548160ff02191690831515021790555061093b33600161100b565b6001905090565b5f5f73ffffffffffffffffffffffffffffffffffffffff168273ffffffffffffffffffffffffffffffffffffffff16036109b1576040517f08c379a00000000000000000000000000000000000000000000000000000000081526004016109a890611736565b60405180910390fd5b3373ffffffffffffffffffffffffffffffffffffffff168273ffffffffffffffffffffffffffffffffffffffff1603610a1f576040517f08c379a0000000000000000000000000000000000000000000000000000000008152600401610a169061179e565b60405180910390fd5b60075f3373ffffffffffffffffffffffffffffffffffffffff1673ffffffffffffffffffffffffffffffffffffffff1681526020019081526020015f205f9054906101000a900460ff1615610aa9576040517f08c379a0000000000000000000000000000000000000000000000000000000008152600401610aa090611806565b60405180910390fd5b600160045f3373ffffffffffffffffffffffffffffffffffffffff1673ffffffffffffffffffffffffffffffffffffffff1681526020019081526020015f20541015610b2a576040517f08c379a0000000000000000000000000000000000000000000000000000000008152600401610b219061186e565b60405180910390fd5b600160045f3373ffffffffffffffffffffffffffffffffffffffff1673ffffffffffffffffffffffffffffffffffffffff1681526020019081526020015f205f828254610b77919061161e565b92505081905550600160045f8473ffffffffffffffffffffffffffffffffffffffff1673ffffffffffffffffffffffffffffffffffffffff1681526020019081526020015f205f828254610bcb9190611651565b92505081905550600160075f3373ffffffffffffffffffffffffffffffffffffffff1673ffffffffffffffffffffffffffffffffffffffff1681526020019081526020015f205f6101000a81548160ff0219169083151502179055508173ffffffffffffffffffffffffffffffffffffffff163373ffffffffffffffffffffffffffffffffffffffff167fddf252ad1be2c89b69c2b068fc378daa952ba7f163c4a11628f55a4df523b3ef6001604051610c8591906118ce565b60405180910390a360019050919050565b5f60045f8373ffffffffffffffffffffffffffffffffffffffff1673ffffffffffffffffffffffffffffffffffffffff1681526020019081526020015f20549050919050565b6006602052805f5260405f205f915054906101000a900460ff1681565b60018054610d0690611421565b80601f0160208091040260200160405190810160405280929190818152602001828054610d3290611421565b8015610d7d5780601f10610d5457610100808354040283529160200191610d7d565b820191905f5260205f20905b815481529060010190602001808311610d6057829003601f168201915b505050505081565b5f5f73ffffffffffffffffffffffffffffffffffffffff168373ffffffffffffffffffffffffffffffffffffffff1603610df4576040517f08c379a0000000000000000000000000000000000000000000000000000000008152600401610deb90611503565b60405180910390fd5b8160045f3373ffffffffffffffffffffffffffffffffffffffff1673ffffffffffffffffffffffffffffffffffffffff1681526020019081526020015f20541015610e74576040517f08c379a0000000000000000000000000000000000000000000000000000000008152600401610e6b9061156b565b60405180910390fd5b8160045f3373ffffffffffffffffffffffffffffffffffffffff1673ffffffffffffffffffffffffffffffffffffffff1681526020019081526020015f205f828254610ec0919061161e565b925050819055508160045f8573ffffffffffffffffffffffffffffffffffffffff1673ffffffffffffffffffffffffffffffffffffffff1681526020019081526020015f205f828254610f139190611651565b925050819055508273ffffffffffffffffffffffffffffffffffffffff163373ffffffffffffffffffffffffffffffffffffffff167fddf252ad1be2c89b69c2b068fc378daa952ba7f163c4a11628f55a4df523b3ef84604051610f779190611319565b60405180910390a36001905092915050565b5f60055f8473ffffffffffffffffffffffffffffffffffffffff1673ffffffffffffffffffffffffffffffffffffffff1681526020019081526020015f205f8373ffffffffffffffffffffffffffffffffffffffff1673ffffffffffffffffffffffffffffffffffffffff1681526020019081526020015f2054905092915050565b5f73ffffffffffffffffffffffffffffffffffffffff168273ffffffffffffffffffffffffffffffffffffffff1603611079576040517f08c379a000000000000000000000000000000000000000000000000000000000815260040161107090611931565b60405180910390fd5b8060035f82825461108a9190611651565b925050819055508060045f8473ffffffffffffffffffffffffffffffffffffffff1673ffffffffffffffffffffffffffffffffffffffff1681526020019081526020015f205f8282546110dd9190611651565b925050819055508173ffffffffffffffffffffffffffffffffffffffff165f73ffffffffffffffffffffffffffffffffffffffff167fddf252ad1be2c89b69c2b068fc378daa952ba7f163c4a11628f55a4df523b3ef836040516111419190611319565b60405180910390a35050565b5f81519050919050565b5f82825260208201905092915050565b8281835e5f83830152505050565b5f601f19601f8301169050919050565b5f61118f8261114d565b6111998185611157565b93506111a9818560208601611167565b6111b281611175565b840191505092915050565b5f6020820190508181035f8301526111d58184611185565b905092915050565b5f5ffd5b5f73ffffffffffffffffffffffffffffffffffffffff82169050919050565b5f61120a826111e1565b9050919050565b61121a81611200565b8114611224575f5ffd5b50565b5f8135905061123581611211565b92915050565b5f819050919050565b61124d8161123b565b8114611257575f5ffd5b50565b5f8135905061126881611244565b92915050565b5f5f60408385031215611284576112836111dd565b5b5f61129185828601611227565b92505060206112a28582860161125a565b9150509250929050565b5f8115159050919050565b6112c0816112ac565b82525050565b5f6020820190506112d95f8301846112b7565b92915050565b5f602082840312156112f4576112f36111dd565b5b5f61130184828501611227565b91505092915050565b6113138161123b565b82525050565b5f60208201905061132c5f83018461130a565b92915050565b5f5f5f60608486031215611349576113486111dd565b5b5f61135686828701611227565b935050602061136786828701611227565b92505060406113788682870161125a565b9150509250925092565b5f60ff82169050919050565b61139781611382565b82525050565b5f6020820190506113b05f83018461138e565b92915050565b5f5f604083850312156113cc576113cb6111dd565b5b5f6113d985828601611227565b92505060206113ea85828601611227565b9150509250929050565b7f4e487b71000000000000000000000000000000000000000000000000000000005f52602260045260245ffd5b5f600282049050600182168061143857607f821691505b60208210810361144b5761144a6113f4565b5b50919050565b7f5472616e736665722066726f6d207a65726f20616464726573730000000000005f82015250565b5f611485601a83611157565b915061149082611451565b602082019050919050565b5f6020820190508181035f8301526114b281611479565b9050919050565b7f5472616e7366657220746f207a65726f206164647265737300000000000000005f82015250565b5f6114ed601883611157565b91506114f8826114b9565b602082019050919050565b5f6020820190508181035f83015261151a816114e1565b9050919050565b7f496e73756666696369656e742062616c616e63650000000000000000000000005f82015250565b5f611555601483611157565b915061156082611521565b602082019050919050565b5f6020820190508181035f83015261158281611549565b9050919050565b7f496e73756666696369656e7420616c6c6f77616e6365000000000000000000005f82015250565b5f6115bd601683611157565b91506115c882611589565b602082019050919050565b5f6020820190508181035f8301526115ea816115b1565b9050919050565b7f4e487b71000000000000000000000000000000000000000000000000000000005f52601160045260245ffd5b5f6116288261123b565b91506116338361123b565b925082820390508181111561164b5761164a6115f1565b5b92915050565b5f61165b8261123b565b91506116668361123b565b925082820190508082111561167e5761167d6115f1565b5b92915050565b7f546f6b656e20616c726561647920636c61696d656400000000000000000000005f82015250565b5f6116b8601583611157565b91506116c382611684565b602082019050919050565b5f6020820190508181035f8301526116e5816116ac565b9050919050565b7f566f746520666f72207a65726f206164647265737300000000000000000000005f82015250565b5f611720601583611157565b915061172b826116ec565b602082019050919050565b5f6020820190508181035f83015261174d81611714565b9050919050565b7f43616e6e6f7420766f746520666f7220796f757273656c6600000000000000005f82015250565b5f611788601883611157565b915061179382611754565b602082019050919050565b5f6020820190508181035f8301526117b58161177c565b9050919050565b7f416c726561647920766f746564000000000000000000000000000000000000005f82015250565b5f6117f0600d83611157565b91506117fb826117bc565b602082019050919050565b5f6020820190508181035f83015261181d816117e4565b9050919050565b7f4e6f20766f74696e6720746f6b656e00000000000000000000000000000000005f82015250565b5f611858600f83611157565b915061186382611824565b602082019050919050565b5f6020820190508181035f8301526118858161184c565b9050919050565b5f819050919050565b5f819050919050565b5f6118b86118b36118ae8461188c565b611895565b61123b565b9050919050565b6118c88161189e565b82525050565b5f6020820190506118e15f8301846118bf565b92915050565b7f4d696e7420746f207a65726f20616464726573730000000000000000000000005f82015250565b5f61191b601483611157565b9150611926826118e7565b602082019050919050565b5f6020820190508181035f8301526119488161190f565b905091905056fea2646970667358221220e20a7fb4580b4a35c0f5ca84c38d9aa07e86021687ba5e0261e2cef17d5a240a64736f6c63430008210033","linkReferences":{}},"methodIdentifiers":{"allowance(address,address)":"dd62ed3e","approve(address,uint256)":"095ea7b3","balanceOf(address)":"70a08231","claimToken()":"4451d89f","decimals()":"313ce567","hasClaimed(address)":"73b2e80e","hasVoted(address)":"09eef43e","name()":"06fdde03","symbol()":"95d89b41","totalSupply()":"18160ddd","transfer(address,uint256)":"a9059cbb","transferFrom(address,address,uint256)":"23b872dd","vote(address)":"6dd7d8ea"},"id":37}